{
  "_format": "hh-sol-artifact-1",
  "contractName": "BuyMeACoffee",
  "sourceName": "contracts/BuyMeACoffe.sol",
  "abi": [
    {
      "inputs": [],
      "stateMutability": "nonpayable",
      "type": "constructor"
    },
    {
      "anonymous": false,
      "inputs": [
        {
          "indexed": true,
          "internalType": "address",
          "name": "from",
          "type": "address"
        },
        {
          "indexed": false,
          "internalType": "uint256",
          "name": "timestamp",
          "type": "uint256"
        },
        {
          "indexed": false,
          "internalType": "string",
          "name": "name",
          "type": "string"
        },
        {
          "indexed": false,
          "internalType": "string",
          "name": "message",
          "type": "string"
        }
      ],
      "name": "NewMemo",
      "type": "event"
    },
    {
      "inputs": [
        {
          "internalType": "string",
          "name": "_name",
          "type": "string"
        },
        {
          "internalType": "string",
          "name": "_message",
          "type": "string"
        }
      ],
      "name": "buyCoffe",
      "outputs": [],
      "stateMutability": "payable",
      "type": "function"
    },
    {
      "inputs": [],
      "name": "getMemos",
      "outputs": [
        {
          "components": [
            {
              "internalType": "address",
              "name": "from",
              "type": "address"
            },
            {
              "internalType": "uint256",
              "name": "timestamp",
              "type": "uint256"
            },
            {
              "internalType": "string",
              "name": "name",
              "type": "string"
            },
            {
              "internalType": "string",
              "name": "message",
              "type": "string"
            }
          ],
          "internalType": "struct BuyMeACoffee.Memo[]",
          "name": "",
          "type": "tuple[]"
        }
      ],
      "stateMutability": "view",
      "type": "function"
    },
    {
      "inputs": [
        {
          "internalType": "uint256",
          "name": "",
          "type": "uint256"
        }
      ],
      "name": "memos",
      "outputs": [
        {
          "internalType": "address",
          "name": "from",
          "type": "address"
        },
        {
          "internalType": "uint256",
          "name": "timestamp",
          "type": "uint256"
        },
        {
          "internalType": "string",
          "name": "name",
          "type": "string"
        },
        {
          "internalType": "string",
          "name": "message",
          "type": "string"
        }
      ],
      "stateMutability": "view",
      "type": "function"
    },
    {
      "inputs": [],
      "name": "owner",
      "outputs": [
        {
          "internalType": "address payable",
          "name": "",
          "type": "address"
        }
      ],
      "stateMutability": "view",
      "type": "function"
    },
    {
      "inputs": [],
      "name": "withdrawTips",
      "outputs": [],
      "stateMutability": "nonpayable",
      "type": "function"
    }
  ],
  "bytecode": "0x608060405234801561001057600080fd5b50336000806101000a81548173ffffffffffffffffffffffffffffffffffffffff021916908373ffffffffffffffffffffffffffffffffffffffff1602179055506110cc806100606000396000f3fe60806040526004361061004a5760003560e01c80630b96ef831461004f5780633aaa74b21461006b578063865c5172146100825780638da5cb5b146100ad578063e8dfdf04146100d8575b600080fd5b61006960048036038101906100649190610860565b610118565b005b34801561007757600080fd5b50610080610292565b005b34801561008e57600080fd5b5061009761038f565b6040516100a49190610add565b60405180910390f35b3480156100b957600080fd5b506100c2610572565b6040516100cf9190610b20565b60405180910390f35b3480156100e457600080fd5b506100ff60048036038101906100fa9190610b67565b610596565b60405161010f9493929190610bfc565b60405180910390f35b6000341161015b576040517f08c379a000000000000000000000000000000000000000000000000000000000815260040161015290610cc1565b60405180910390fd5b600160405180608001604052803373ffffffffffffffffffffffffffffffffffffffff16815260200142815260200184815260200183815250908060018154018082558091505060019003906000526020600020906004020160009091909190915060008201518160000160006101000a81548173ffffffffffffffffffffffffffffffffffffffff021916908373ffffffffffffffffffffffffffffffffffffffff1602179055506020820151816001015560408201518160020190816102239190610eed565b5060608201518160030190816102399190610eed565b5050503373ffffffffffffffffffffffffffffffffffffffff167fc56140e05f516509ae28110e0f72e17558a7561630dad2647c3ae87d986e365c42848460405161028693929190610fbf565b60405180910390a25050565b60008054906101000a900473ffffffffffffffffffffffffffffffffffffffff1673ffffffffffffffffffffffffffffffffffffffff163373ffffffffffffffffffffffffffffffffffffffff1614610320576040517f08c379a000000000000000000000000000000000000000000000000000000000815260040161031790611076565b60405180910390fd5b600047905060008054906101000a900473ffffffffffffffffffffffffffffffffffffffff1673ffffffffffffffffffffffffffffffffffffffff166108fc829081150290604051600060405180830381858888f1935050505015801561038b573d6000803e3d6000fd5b5050565b60606001805480602002602001604051908101604052809291908181526020016000905b8282101561056957838290600052602060002090600402016040518060800160405290816000820160009054906101000a900473ffffffffffffffffffffffffffffffffffffffff1673ffffffffffffffffffffffffffffffffffffffff1673ffffffffffffffffffffffffffffffffffffffff1681526020016001820154815260200160028201805461044690610d10565b80601f016020809104026020016040519081016040528092919081815260200182805461047290610d10565b80156104bf5780601f10610494576101008083540402835291602001916104bf565b820191906000526020600020905b8154815290600101906020018083116104a257829003601f168201915b505050505081526020016003820180546104d890610d10565b80601f016020809104026020016040519081016040528092919081815260200182805461050490610d10565b80156105515780601f1061052657610100808354040283529160200191610551565b820191906000526020600020905b81548152906001019060200180831161053457829003601f168201915b505050505081525050815260200190600101906103b3565b50505050905090565b60008054906101000a900473ffffffffffffffffffffffffffffffffffffffff1681565b600181815481106105a657600080fd5b90600052602060002090600402016000915090508060000160009054906101000a900473ffffffffffffffffffffffffffffffffffffffff16908060010154908060020180546105f590610d10565b80601f016020809104026020016040519081016040528092919081815260200182805461062190610d10565b801561066e5780601f106106435761010080835404028352916020019161066e565b820191906000526020600020905b81548152906001019060200180831161065157829003601f168201915b50505050509080600301805461068390610d10565b80601f01602080910402602001604051908101604052809291908181526020018280546106af90610d10565b80156106fc5780601f106106d1576101008083540402835291602001916106fc565b820191906000526020600020905b8154815290600101906020018083116106df57829003601f168201915b5050505050905084565b6000604051905090565b600080fd5b600080fd5b600080fd5b600080fd5b6000601f19601f8301169050919050565b7f4e487b7100000000000000000000000000000000000000000000000000000000600052604160045260246000fd5b61076d82610724565b810181811067ffffffffffffffff8211171561078c5761078b610735565b5b80604052505050565b600061079f610706565b90506107ab8282610764565b919050565b600067ffffffffffffffff8211156107cb576107ca610735565b5b6107d482610724565b9050602081019050919050565b82818337600083830152505050565b60006108036107fe846107b0565b610795565b90508281526020810184848401111561081f5761081e61071f565b5b61082a8482856107e1565b509392505050565b600082601f8301126108475761084661071a565b5b81356108578482602086016107f0565b91505092915050565b6000806040838503121561087757610876610710565b5b600083013567ffffffffffffffff81111561089557610894610715565b5b6108a185828601610832565b925050602083013567ffffffffffffffff8111156108c2576108c1610715565b5b6108ce85828601610832565b9150509250929050565b600081519050919050565b600082825260208201905092915050565b6000819050602082019050919050565b600073ffffffffffffffffffffffffffffffffffffffff82169050919050565b600061092f82610904565b9050919050565b61093f81610924565b82525050565b6000819050919050565b61095881610945565b82525050565b600081519050919050565b600082825260208201905092915050565b60005b8381101561099857808201518184015260208101905061097d565b60008484015250505050565b60006109af8261095e565b6109b98185610969565b93506109c981856020860161097a565b6109d281610724565b840191505092915050565b60006080830160008301516109f56000860182610936565b506020830151610a08602086018261094f565b5060408301518482036040860152610a2082826109a4565b91505060608301518482036060860152610a3a82826109a4565b9150508091505092915050565b6000610a5383836109dd565b905092915050565b6000602082019050919050565b6000610a73826108d8565b610a7d81856108e3565b935083602082028501610a8f856108f4565b8060005b85811015610acb5784840389528151610aac8582610a47565b9450610ab783610a5b565b925060208a01995050600181019050610a93565b50829750879550505050505092915050565b60006020820190508181036000830152610af78184610a68565b905092915050565b6000610b0a82610904565b9050919050565b610b1a81610aff565b82525050565b6000602082019050610b356000830184610b11565b92915050565b610b4481610945565b8114610b4f57600080fd5b50565b600081359050610b6181610b3b565b92915050565b600060208284031215610b7d57610b7c610710565b5b6000610b8b84828501610b52565b91505092915050565b610b9d81610924565b82525050565b610bac81610945565b82525050565b600082825260208201905092915050565b6000610bce8261095e565b610bd88185610bb2565b9350610be881856020860161097a565b610bf181610724565b840191505092915050565b6000608082019050610c116000830187610b94565b610c1e6020830186610ba3565b8181036040830152610c308185610bc3565b90508181036060830152610c448184610bc3565b905095945050505050565b7f596f752063616e277420627579206120636f66666520776974686f7574206d6f60008201527f6e65790000000000000000000000000000000000000000000000000000000000602082015250565b6000610cab602383610bb2565b9150610cb682610c4f565b604082019050919050565b60006020820190508181036000830152610cda81610c9e565b9050919050565b7f4e487b7100000000000000000000000000000000000000000000000000000000600052602260045260246000fd5b60006002820490506001821680610d2857607f821691505b602082108103610d3b57610d3a610ce1565b5b50919050565b60008190508160005260206000209050919050565b60006020601f8301049050919050565b600082821b905092915050565b600060088302610da37fffffffffffffffffffffffffffffffffffffffffffffffffffffffffffffffff82610d66565b610dad8683610d66565b95508019841693508086168417925050509392505050565b6000819050919050565b6000610dea610de5610de084610945565b610dc5565b610945565b9050919050565b6000819050919050565b610e0483610dcf565b610e18610e1082610df1565b848454610d73565b825550505050565b600090565b610e2d610e20565b610e38818484610dfb565b505050565b5b81811015610e5c57610e51600082610e25565b600181019050610e3e565b5050565b601f821115610ea157610e7281610d41565b610e7b84610d56565b81016020851015610e8a578190505b610e9e610e9685610d56565b830182610e3d565b50505b505050565b600082821c905092915050565b6000610ec460001984600802610ea6565b1980831691505092915050565b6000610edd8383610eb3565b9150826002028217905092915050565b610ef68261095e565b67ffffffffffffffff811115610f0f57610f0e610735565b5b610f198254610d10565b610f24828285610e60565b600060209050601f831160018114610f575760008415610f45578287015190505b610f4f8582610ed1565b865550610fb7565b601f198416610f6586610d41565b60005b82811015610f8d57848901518255600182019150602085019450602081019050610f68565b86831015610faa5784890151610fa6601f891682610eb3565b8355505b6001600288020188555050505b505050505050565b6000606082019050610fd46000830186610ba3565b8181036020830152610fe68185610bc3565b90508181036040830152610ffa8184610bc3565b9050949350505050565b7f4f6e6c7920746865206f776e65722063616e207769746864726177207468652060008201527f62616c616e636500000000000000000000000000000000000000000000000000602082015250565b6000611060602783610bb2565b915061106b82611004565b604082019050919050565b6000602082019050818103600083015261108f81611053565b905091905056fea264697066735822122012fa181491cd4bbcb3e860db9ba6e61f2bd093fdc9cdbc0df5673ec72b451a3964736f6c63430008140033",
  "linkReferences": {},
  "deployedLinkReferences": {}
}